{
  "contractName": "FamilyWallet",
  "abi": [
    {
      "inputs": [],
      "payable": false,
      "stateMutability": "nonpayable",
      "type": "constructor"
    },
    {
      "constant": false,
      "inputs": [
        {
          "name": "members",
          "type": "address[]"
        }
      ],
      "name": "assignFamily",
      "outputs": [],
      "payable": false,
      "stateMutability": "nonpayable",
      "type": "function"
    }
  ],
  "bytecode": "0x6060604052341561000f57600080fd5b60ca8061001d6000396000f300606060405260043610603f576000357c0100000000000000000000000000000000000000000000000000000000900463ffffffff168063f0a40642146044575b600080fd5b3415604e57600080fd5b6099600480803590602001908201803590602001908080602002602001604051908101604052809392919081815260200183836020028082843782019150505050505091905050609b565b005b505600a165627a7a72305820bead6f07ca2b2f8e740a24ee0febf8dc54360bc544ddb1b65692e7f4a0182cd30029",
  "source": "pragma solidity ^0.4.18;\n\ncontract FamilyWallet {\n  function FamilyWallet() {\n\n  }\n\n  function assignFamily(address[] members) {\n\n  }\n}\n",
  "sourcePath": "/Users/origins/Documents/GitHub/dc-blockchain-summit/contracts/FamilyWallet.sol",
  "compiler": {
    "name": "solc",
    "version": "0.4.19+commit.c4cbbb05.Emscripten.clang"
  },
  "schemaVersion": "1.0.1",
  "updatedAt": "2018-03-06T17:17:45.657Z"
}